{
    "contractName": "Token",
    "abi": [
        {
            "inputs": [
                {
                    "internalType": "string",
                    "name": "tokenName",
                    "type": "string"
                },
                {
                    "internalType": "string",
                    "name": "tokenSymbol",
                    "type": "string"
                },
                {
                    "internalType": "uint256",
                    "name": "supply",
                    "type": "uint256"
                },
                {
                    "internalType": "address[]",
                    "name": "addresses",
                    "type": "address[]"
                },
                {
                    "internalType": "uint16[]",
                    "name": "percents",
                    "type": "uint16[]"
                }
            ],
            "stateMutability": "nonpayable",
            "type": "constructor"
        },
        {
            "anonymous": false,
            "inputs": [
                {
                    "indexed": true,
                    "internalType": "address",
                    "name": "owner",
                    "type": "address"
                },
                {
                    "indexed": true,
                    "internalType": "address",
                    "name": "spender",
                    "type": "address"
                },
                {
                    "indexed": false,
                    "internalType": "uint256",
                    "name": "value",
                    "type": "uint256"
                }
            ],
            "name": "Approval",
            "type": "event"
        },
        {
            "anonymous": false,
            "inputs": [
                {
                    "indexed": true,
                    "internalType": "address",
                    "name": "previousOwner",
                    "type": "address"
                },
                {
                    "indexed": true,
                    "internalType": "address",
                    "name": "newOwner",
                    "type": "address"
                }
            ],
            "name": "OwnershipTransferred",
            "type": "event"
        },
        {
            "anonymous": false,
            "inputs": [
                {
                    "indexed": true,
                    "internalType": "address",
                    "name": "from",
                    "type": "address"
                },
                {
                    "indexed": true,
                    "internalType": "address",
                    "name": "to",
                    "type": "address"
                },
                {
                    "indexed": false,
                    "internalType": "uint256",
                    "name": "value",
                    "type": "uint256"
                }
            ],
            "name": "Transfer",
            "type": "event"
        },
        {
            "inputs": [],
            "name": "TAX_DIVISOR",
            "outputs": [
                {
                    "internalType": "uint256",
                    "name": "",
                    "type": "uint256"
                }
            ],
            "stateMutability": "view",
            "type": "function"
        },
        {
            "inputs": [],
            "name": "WETH",
            "outputs": [
                {
                    "internalType": "address",
                    "name": "",
                    "type": "address"
                }
            ],
            "stateMutability": "nonpayable",
            "type": "function"
        },
        {
            "inputs": [],
            "name": "_feesRates",
            "outputs": [
                {
                    "internalType": "uint16",
                    "name": "buyFee",
                    "type": "uint16"
                },
                {
                    "internalType": "uint16",
                    "name": "sellFee",
                    "type": "uint16"
                },
                {
                    "internalType": "uint16",
                    "name": "transferFee",
                    "type": "uint16"
                }
            ],
            "stateMutability": "view",
            "type": "function"
        },
        {
            "inputs": [
                {
                    "internalType": "address",
                    "name": "",
                    "type": "address"
                }
            ],
            "name": "_isExcludedFromFee",
            "outputs": [
                {
                    "internalType": "bool",
                    "name": "",
                    "type": "bool"
                }
            ],
            "stateMutability": "view",
            "type": "function"
        },
        {
            "inputs": [
                {
                    "internalType": "address",
                    "name": "owner",
                    "type": "address"
                },
                {
                    "internalType": "address",
                    "name": "spender",
                    "type": "address"
                }
            ],
            "name": "allowance",
            "outputs": [
                {
                    "internalType": "uint256",
                    "name": "",
                    "type": "uint256"
                }
            ],
            "stateMutability": "view",
            "type": "function"
        },
        {
            "inputs": [
                {
                    "internalType": "address",
                    "name": "spender",
                    "type": "address"
                },
                {
                    "internalType": "uint256",
                    "name": "amount",
                    "type": "uint256"
                }
            ],
            "name": "approve",
            "outputs": [
                {
                    "internalType": "bool",
                    "name": "",
                    "type": "bool"
                }
            ],
            "stateMutability": "nonpayable",
            "type": "function"
        },
        {
            "inputs": [
                {
                    "internalType": "address",
                    "name": "",
                    "type": "address"
                }
            ],
            "name": "automatedMarketMakerPairs",
            "outputs": [
                {
                    "internalType": "bool",
                    "name": "",
                    "type": "bool"
                }
            ],
            "stateMutability": "view",
            "type": "function"
        },
        {
            "inputs": [
                {
                    "internalType": "address",
                    "name": "account",
                    "type": "address"
                }
            ],
            "name": "balanceOf",
            "outputs": [
                {
                    "internalType": "uint256",
                    "name": "",
                    "type": "uint256"
                }
            ],
            "stateMutability": "view",
            "type": "function"
        },
        {
            "inputs": [
                {
                    "internalType": "uint256",
                    "name": "amount",
                    "type": "uint256"
                }
            ],
            "name": "burn",
            "outputs": [],
            "stateMutability": "nonpayable",
            "type": "function"
        },
        {
            "inputs": [
                {
                    "internalType": "address",
                    "name": "account",
                    "type": "address"
                },
                {
                    "internalType": "uint256",
                    "name": "amount",
                    "type": "uint256"
                }
            ],
            "name": "burnFrom",
            "outputs": [],
            "stateMutability": "nonpayable",
            "type": "function"
        },
        {
            "inputs": [],
            "name": "decimals",
            "outputs": [
                {
                    "internalType": "uint8",
                    "name": "",
                    "type": "uint8"
                }
            ],
            "stateMutability": "view",
            "type": "function"
        },
        {
            "inputs": [
                {
                    "internalType": "address",
                    "name": "spender",
                    "type": "address"
                },
                {
                    "internalType": "uint256",
                    "name": "subtractedValue",
                    "type": "uint256"
                }
            ],
            "name": "decreaseAllowance",
            "outputs": [
                {
                    "internalType": "bool",
                    "name": "",
                    "type": "bool"
                }
            ],
            "stateMutability": "nonpayable",
            "type": "function"
        },
        {
            "inputs": [
                {
                    "internalType": "address",
                    "name": "account",
                    "type": "address"
                },
                {
                    "internalType": "bool",
                    "name": "val",
                    "type": "bool"
                }
            ],
            "name": "excludeFromFee",
            "outputs": [],
            "stateMutability": "nonpayable",
            "type": "function"
        },
        {
            "inputs": [],
            "name": "inSwap",
            "outputs": [
                {
                    "internalType": "bool",
                    "name": "",
                    "type": "bool"
                }
            ],
            "stateMutability": "view",
            "type": "function"
        },
        {
            "inputs": [
                {
                    "internalType": "address",
                    "name": "spender",
                    "type": "address"
                },
                {
                    "internalType": "uint256",
                    "name": "addedValue",
                    "type": "uint256"
                }
            ],
            "name": "increaseAllowance",
            "outputs": [
                {
                    "internalType": "bool",
                    "name": "",
                    "type": "bool"
                }
            ],
            "stateMutability": "nonpayable",
            "type": "function"
        },
        {
            "inputs": [
                {
                    "internalType": "address",
                    "name": "account",
                    "type": "address"
                }
            ],
            "name": "isExcludedFromFee",
            "outputs": [
                {
                    "internalType": "bool",
                    "name": "",
                    "type": "bool"
                }
            ],
            "stateMutability": "view",
            "type": "function"
        },
        {
            "inputs": [],
            "name": "lpPair",
            "outputs": [
                {
                    "internalType": "address",
                    "name": "",
                    "type": "address"
                }
            ],
            "stateMutability": "view",
            "type": "function"
        },
        {
            "inputs": [],
            "name": "name",
            "outputs": [
                {
                    "internalType": "string",
                    "name": "",
                    "type": "string"
                }
            ],
            "stateMutability": "view",
            "type": "function"
        },
        {
            "inputs": [],
            "name": "owner",
            "outputs": [
                {
                    "internalType": "address",
                    "name": "",
                    "type": "address"
                }
            ],
            "stateMutability": "view",
            "type": "function"
        },
        {
            "inputs": [],
            "name": "renounceOwnership",
            "outputs": [],
            "stateMutability": "nonpayable",
            "type": "function"
        },
        {
            "inputs": [],
            "name": "router",
            "outputs": [
                {
                    "internalType": "address",
                    "name": "",
                    "type": "address"
                }
            ],
            "stateMutability": "view",
            "type": "function"
        },
        {
            "inputs": [
                {
                    "internalType": "uint256",
                    "name": "value",
                    "type": "uint256"
                }
            ],
            "name": "setSwapThreshold",
            "outputs": [],
            "stateMutability": "nonpayable",
            "type": "function"
        },
        {
            "inputs": [
                {
                    "internalType": "uint16",
                    "name": "buyFee",
                    "type": "uint16"
                },
                {
                    "internalType": "uint16",
                    "name": "sellFee",
                    "type": "uint16"
                },
                {
                    "internalType": "uint16",
                    "name": "transferFee",
                    "type": "uint16"
                }
            ],
            "name": "setTaxes",
            "outputs": [],
            "stateMutability": "nonpayable",
            "type": "function"
        },
        {
            "inputs": [
                {
                    "internalType": "address",
                    "name": "_treasuryAddress",
                    "type": "address"
                }
            ],
            "name": "setTreasuryAddress",
            "outputs": [],
            "stateMutability": "nonpayable",
            "type": "function"
        },
        {
            "inputs": [],
            "name": "swapThreshold",
            "outputs": [
                {
                    "internalType": "uint256",
                    "name": "",
                    "type": "uint256"
                }
            ],
            "stateMutability": "view",
            "type": "function"
        },
        {
            "inputs": [],
            "name": "symbol",
            "outputs": [
                {
                    "internalType": "string",
                    "name": "",
                    "type": "string"
                }
            ],
            "stateMutability": "view",
            "type": "function"
        },
        {
            "inputs": [],
            "name": "totalSupply",
            "outputs": [
                {
                    "internalType": "uint256",
                    "name": "",
                    "type": "uint256"
                }
            ],
            "stateMutability": "view",
            "type": "function"
        },
        {
            "inputs": [
                {
                    "internalType": "address",
                    "name": "to",
                    "type": "address"
                },
                {
                    "internalType": "uint256",
                    "name": "amount",
                    "type": "uint256"
                }
            ],
            "name": "transfer",
            "outputs": [
                {
                    "internalType": "bool",
                    "name": "",
                    "type": "bool"
                }
            ],
            "stateMutability": "nonpayable",
            "type": "function"
        },
        {
            "inputs": [
                {
                    "internalType": "address",
                    "name": "from",
                    "type": "address"
                },
                {
                    "internalType": "address",
                    "name": "to",
                    "type": "address"
                },
                {
                    "internalType": "uint256",
                    "name": "amount",
                    "type": "uint256"
                }
            ],
            "name": "transferFrom",
            "outputs": [
                {
                    "internalType": "bool",
                    "name": "",
                    "type": "bool"
                }
            ],
            "stateMutability": "nonpayable",
            "type": "function"
        },
        {
            "inputs": [
                {
                    "internalType": "address",
                    "name": "newOwner",
                    "type": "address"
                }
            ],
            "name": "transferOwnership",
            "outputs": [],
            "stateMutability": "nonpayable",
            "type": "function"
        },
        {
            "inputs": [],
            "name": "treasuryAddress",
            "outputs": [
                {
                    "internalType": "address",
                    "name": "",
                    "type": "address"
                }
            ],
            "stateMutability": "view",
            "type": "function"
        },
        {
            "stateMutability": "payable",
            "type": "receive"
        }
    ],
    "bytecode": "60806040523480156200001157600080fd5b506040516200226e3803806200226e833981016040819052620000349162000736565b84846003620000448382620008eb565b506004620000538282620008eb565b505050620000706200006a6200047160201b60201c565b62000475565b8151600214620000c75760405162461bcd60e51b815260206004820152601860248201527f496e76616c6964206164647265737320617267756d656e74000000000000000060448201526064015b60405180910390fd5b80516002146200011a5760405162461bcd60e51b815260206004820152601860248201527f496e76616c69642070657263656e7420617267756d656e7400000000000000006044820152606401620000be565b6126ac81600081518110620001335762000133620009b7565b602002602001015161ffff16111580156200017157506126ac81600181518110620001625762000162620009b7565b602002602001015161ffff1611155b620001af5760405162461bcd60e51b815260206004820152600d60248201526c0a8dede40d0d2ced0e840e8c2f609b1b6044820152606401620000be565b81600181518110620001c557620001c5620009b7565b6020908102919091010151600780546001600160a01b0319166001600160a01b03909216919091179055620001fb3384620004c7565b6040518060600160405280826000815181106200021c576200021c620009b7565b602002602001015161ffff16815260200182600181518110620002435762000243620009b7565b60209081029190910181015161ffff908116835260009282018390528351600d80549386015160409096015183166401000000000261ffff60201b19968416620100000263ffffffff1990951692909316919091179290921793909316929092179091558251839190620002bb57620002bb620009b7565b602090810291909101810151600c80546001600160a01b039092166001600160a01b031990921682179055604080518082018252601b81527f6372656174655061697228616464726573732c616464726573732900000000009084015280516004815260248101825292830180516001600160e01b03166364e329cb60e11b17905251600092839291620003509190620009cd565b600060405180830381855afa9150503d80600081146200038d576040519150601f19603f3d011682016040523d82523d6000602084013e62000392565b606091505b509150915080806020019051810190620003ad9190620009eb565b600680546001600160a01b0319166001600160a01b039290921691821790556000908152600a60205260408120805460ff1916600190811790915590600b90620003ff6005546001600160a01b031690565b6001600160a01b03908116825260208083019390935260409182016000908120805495151560ff199687161790556007549091168152600b909252808220805484166001908117909155308352912080549092161790555050683635c9adc5dea000006008555062000a3a9350505050565b3390565b600580546001600160a01b038381166001600160a01b0319831681179093556040519116919082907f8be0079c531659141344cd1fd0a4f28419497f9722a3daafe3b4186f6b6457e090600090a35050565b6001600160a01b0382166200051f5760405162461bcd60e51b815260206004820152601f60248201527f45524332303a206d696e7420746f20746865207a65726f2061646472657373006044820152606401620000be565b806002600082825462000533919062000a12565b90915550506001600160a01b038216600081815260208181526040808320805486019055518481527fddf252ad1be2c89b69c2b068fc378daa952ba7f163c4a11628f55a4df523b3ef910160405180910390a35050565b505050565b634e487b7160e01b600052604160045260246000fd5b604051601f8201601f191681016001600160401b0381118282101715620005d057620005d06200058f565b604052919050565b60005b83811015620005f5578181015183820152602001620005db565b50506000910152565b600082601f8301126200061057600080fd5b81516001600160401b038111156200062c576200062c6200058f565b62000641601f8201601f1916602001620005a5565b8181528460208386010111156200065757600080fd5b6200066a826020830160208701620005d8565b949350505050565b60006001600160401b038211156200068e576200068e6200058f565b5060051b60200190565b6001600160a01b0381168114620006ae57600080fd5b50565b600082601f830112620006c357600080fd5b81516020620006dc620006d68362000672565b620005a5565b82815260059290921b84018101918181019086841115620006fc57600080fd5b8286015b848110156200072b57805161ffff811681146200071d5760008081fd5b835291830191830162000700565b509695505050505050565b600080600080600060a086880312156200074f57600080fd5b85516001600160401b03808211156200076757600080fd5b6200077589838a01620005fe565b96506020915081880151818111156200078d57600080fd5b6200079b8a828b01620005fe565b96505060408801519450606088015181811115620007b857600080fd5b8801601f81018a13620007ca57600080fd5b8051620007db620006d68262000672565b81815260059190911b8201840190848101908c831115620007fb57600080fd5b928501925b8284101562000826578351620008168162000698565b8252928501929085019062000800565b60808c01519097509450505050808211156200084157600080fd5b506200085088828901620006b1565b9150509295509295909350565b600181811c908216806200087257607f821691505b6020821081036200089357634e487b7160e01b600052602260045260246000fd5b50919050565b601f8211156200058a57600081815260208120601f850160051c81016020861015620008c25750805b601f850160051c820191505b81811015620008e357828155600101620008ce565b505050505050565b81516001600160401b038111156200090757620009076200058f565b6200091f816200091884546200085d565b8462000899565b602080601f8311600181146200095757600084156200093e5750858301515b600019600386901b1c1916600185901b178555620008e3565b600085815260208120601f198616915b82811015620009885788860151825594840194600190910190840162000967565b5085821015620009a75787850151600019600388901b60f8161c191681555b5050505050600190811b01905550565b634e487b7160e01b600052603260045260246000fd5b60008251620009e1818460208701620005d8565b9190910192915050565b600060208284031215620009fe57600080fd5b815162000a0b8162000698565b9392505050565b8082018082111562000a3457634e487b7160e01b600052601160045260246000fd5b92915050565b6118248062000a4a6000396000f3fe6080604052600436106101dc5760003560e01c8063768dc71011610102578063ad5c464811610095578063dd62ed3e11610064578063dd62ed3e146105c0578063df8408fe146105e0578063f2fde38b14610600578063f887ea401461062057600080fd5b8063ad5c464814610541578063b62496f514610556578063c5f956af14610586578063d8306786146105a657600080fd5b80639d0014b1116100d15780639d0014b1146104cb578063a335d4ff146104eb578063a457c2d714610501578063a9059cbb1461052157600080fd5b8063768dc7101461044857806379cc6790146104785780638da5cb5b1461049857806395d89b41146104b657600080fd5b806332cde6641161017a5780635342acb4116101495780635342acb4146103a45780636605bfda146103dd57806370a08231146103fd578063715018a61461043357600080fd5b806332cde6641461030a578063395093511461032c57806342966c681461034c578063452ed4f11461036c57600080fd5b806318160ddd116101b657806318160ddd146102635780631c06a7e11461027857806323b872dd146102ce578063313ce567146102ee57600080fd5b80630445b667146101e857806306fdde0314610211578063095ea7b31461023357600080fd5b366101e357005b600080fd5b3480156101f457600080fd5b506101fe60085481565b6040519081526020015b60405180910390f35b34801561021d57600080fd5b50610226610640565b604051610208919061147a565b34801561023f57600080fd5b5061025361024e3660046114c2565b6106d2565b6040519015158152602001610208565b34801561026f57600080fd5b506002546101fe565b34801561028457600080fd5b50600d546102a99061ffff808216916201000081048216916401000000009091041683565b6040805161ffff94851681529284166020840152921691810191909152606001610208565b3480156102da57600080fd5b506102536102e93660046114ee565b6106ec565b3480156102fa57600080fd5b5060405160128152602001610208565b34801561031657600080fd5b5061032a610325366004611546565b610710565b005b34801561033857600080fd5b506102536103473660046114c2565b6107b4565b34801561035857600080fd5b5061032a610367366004611589565b6107d6565b34801561037857600080fd5b5060065461038c906001600160a01b031681565b6040516001600160a01b039091168152602001610208565b3480156103b057600080fd5b506102536103bf3660046115a2565b6001600160a01b03166000908152600b602052604090205460ff1690565b3480156103e957600080fd5b5061032a6103f83660046115a2565b6107e3565b34801561040957600080fd5b506101fe6104183660046115a2565b6001600160a01b031660009081526020819052604090205490565b34801561043f57600080fd5b5061032a61080d565b34801561045457600080fd5b506102536104633660046115a2565b600b6020526000908152604090205460ff1681565b34801561048457600080fd5b5061032a6104933660046114c2565b6108a5565b3480156104a457600080fd5b506005546001600160a01b031661038c565b3480156104c257600080fd5b506102266108be565b3480156104d757600080fd5b5061032a6104e6366004611589565b6108cd565b3480156104f757600080fd5b506101fe61271081565b34801561050d57600080fd5b5061025361051c3660046114c2565b6108da565b34801561052d57600080fd5b5061025361053c3660046114c2565b610955565b34801561054d57600080fd5b5061038c610963565b34801561056257600080fd5b506102536105713660046115a2565b600a6020526000908152604090205460ff1681565b34801561059257600080fd5b5060075461038c906001600160a01b031681565b3480156105b257600080fd5b506009546102539060ff1681565b3480156105cc57600080fd5b506101fe6105db3660046115c6565b610a29565b3480156105ec57600080fd5b5061032a6105fb3660046115ff565b610a54565b34801561060c57600080fd5b5061032a61061b3660046115a2565b610a87565b34801561062c57600080fd5b50600c5461038c906001600160a01b031681565b60606003805461064f90611632565b80601f016020809104026020016040519081016040528092919081815260200182805461067b90611632565b80156106c85780601f1061069d576101008083540402835291602001916106c8565b820191906000526020600020905b8154815290600101906020018083116106ab57829003601f168201915b5050505050905090565b6000336106e0818585610afd565b60019150505b92915050565b6000336106fa858285610c21565b610705858585610c9b565b506001949350505050565b610718610cd8565b6126ac8361ffff161115801561073457506126ac8261ffff1611155b6107755760405162461bcd60e51b815260206004820152600d60248201526c0a8dede40d0d2ced0e840e8c2f609b1b60448201526064015b60405180910390fd5b600d805461ffff94851663ffffffff199091161762010000938516939093029290921765ffff0000000019166401000000009190931602919091179055565b6000336106e08185856107c78383610a29565b6107d19190611682565b610afd565b6107e03382610d32565b50565b6107eb610cd8565b600780546001600160a01b0319166001600160a01b0392909216919091179055565b610815610cd8565b600d5461119461ffff90911610801561083c5750600d546111946201000090910461ffff16105b6108995760405162461bcd60e51b815260206004820152602860248201527f546f6f206869676874207461782c2063616e27742072656e6f756e6365206f776044820152673732b939b434b81760c11b606482015260840161076c565b6108a36000610e64565b565b6108b0823383610c21565b6108ba8282610d32565b5050565b60606004805461064f90611632565b6108d5610cd8565b600855565b600033816108e88286610a29565b9050838110156109485760405162461bcd60e51b815260206004820152602560248201527f45524332303a2064656372656173656420616c6c6f77616e63652062656c6f77604482015264207a65726f60d81b606482015260840161076c565b6107058286868403610afd565b6000336106e0818585610c9b565b600c54604080518082018252600681526557455448282960d01b60209182015281516004815260248101835290810180516001600160e01b03166315ab88c960e31b1790529051600092839283926001600160a01b03909216916109c79190611695565b6000604051808303816000865af19150503d8060008114610a04576040519150601f19603f3d011682016040523d82523d6000602084013e610a09565b606091505b509150915080806020019051810190610a2291906116b1565b9250505090565b6001600160a01b03918216600090815260016020908152604080832093909416825291909152205490565b610a5c610cd8565b6001600160a01b03919091166000908152600b60205260409020805460ff1916911515919091179055565b610a8f610cd8565b6001600160a01b038116610af45760405162461bcd60e51b815260206004820152602660248201527f4f776e61626c653a206e6577206f776e657220697320746865207a65726f206160448201526564647265737360d01b606482015260840161076c565b6107e081610e64565b6001600160a01b038316610b5f5760405162461bcd60e51b8152602060048201526024808201527f45524332303a20617070726f76652066726f6d20746865207a65726f206164646044820152637265737360e01b606482015260840161076c565b6001600160a01b038216610bc05760405162461bcd60e51b815260206004820152602260248201527f45524332303a20617070726f766520746f20746865207a65726f206164647265604482015261737360f01b606482015260840161076c565b6001600160a01b0383811660008181526001602090815260408083209487168084529482529182902085905590518481527f8c5be1e5ebec7d5bd14f71427d1e84f3dd0314c0f7b2291e5b200ac8c7c3b925910160405180910390a3505050565b6000610c2d8484610a29565b90506000198114610c955781811015610c885760405162461bcd60e51b815260206004820152601d60248201527f45524332303a20696e73756666696369656e7420616c6c6f77616e6365000000604482015260640161076c565b610c958484848403610afd565b50505050565b60095460ff1615610cb657610cb1838383610eb6565b505050565b610cc0838361105a565b15610ccd57610ccd61110f565b610cb1838383611158565b6005546001600160a01b031633146108a35760405162461bcd60e51b815260206004820181905260248201527f4f776e61626c653a2063616c6c6572206973206e6f7420746865206f776e6572604482015260640161076c565b6001600160a01b038216610d925760405162461bcd60e51b815260206004820152602160248201527f45524332303a206275726e2066726f6d20746865207a65726f206164647265736044820152607360f81b606482015260840161076c565b6001600160a01b03821660009081526020819052604090205481811015610e065760405162461bcd60e51b815260206004820152602260248201527f45524332303a206275726e20616d6f756e7420657863656564732062616c616e604482015261636560f01b606482015260840161076c565b6001600160a01b0383166000818152602081815260408083208686039055600280548790039055518581529192917fddf252ad1be2c89b69c2b068fc378daa952ba7f163c4a11628f55a4df523b3ef910160405180910390a3505050565b600580546001600160a01b038381166001600160a01b0319831681179093556040519116919082907f8be0079c531659141344cd1fd0a4f28419497f9722a3daafe3b4186f6b6457e090600090a35050565b6001600160a01b038316610f1a5760405162461bcd60e51b815260206004820152602560248201527f45524332303a207472616e736665722066726f6d20746865207a65726f206164604482015264647265737360d81b606482015260840161076c565b6001600160a01b038216610f7c5760405162461bcd60e51b815260206004820152602360248201527f45524332303a207472616e7366657220746f20746865207a65726f206164647260448201526265737360e81b606482015260840161076c565b6001600160a01b03831660009081526020819052604090205481811015610ff45760405162461bcd60e51b815260206004820152602660248201527f45524332303a207472616e7366657220616d6f756e7420657863656564732062604482015265616c616e636560d01b606482015260840161076c565b6001600160a01b03848116600081815260208181526040808320878703905593871680835291849020805487019055925185815290927fddf252ad1be2c89b69c2b068fc378daa952ba7f163c4a11628f55a4df523b3ef910160405180910390a3610c95565b30600090815260208190526040812054600854811015801561107f575060095460ff16155b801561109957506006546001600160a01b03858116911614155b80156110bd57506006546001600160a01b0316600090815260208190526040812054115b80156110e257506001600160a01b0383166000908152600b602052604090205460ff16155b801561110757506001600160a01b0384166000908152600b602052604090205460ff16155b949350505050565b6009805460ff19166001179055306000908152602081905260408120549050801561114b5760075461114b9082906001600160a01b03166111df565b506009805460ff19169055565b6001600160a01b0383166000908152600b6020526040902054819060019060ff168061119c57506001600160a01b0384166000908152600b602052604090205460ff165b156111a5575060005b80156111cd5760006111b886868661139c565b905080156111cb576111cb863083610eb6565b505b6111d8858584610eb6565b5050505050565b6040805160028082526060820183526000926020830190803683370190505090503081600081518110611214576112146116ce565b60200260200101906001600160a01b031690816001600160a01b03168152505061123c610963565b8160018151811061124f5761124f6116ce565b6001600160a01b039283166020918202929092010152600c546112759130911685610afd565b600c546040805160808101909152605d8082526000926001600160a01b031691906117926020830139805160209091012085600085876112b742614e20611682565b6040516024016112cb9594939291906116e4565b60408051601f198184030181529181526020820180516001600160e01b03166001600160e01b03199094169390931790925290516113099190611695565b6000604051808303816000865af19150503d8060008114611346576040519150601f19603f3d011682016040523d82523d6000602084013e61134b565b606091505b5050905080610c955760405162461bcd60e51b815260206004820152601a60248201527f4572726f723a2073776170546f6b656e73466f724e6174697665000000000000604482015260640161076c565b6001600160a01b0383166000908152600a60205260408120548190819060ff16156113d957600d546113d29061ffff1683611682565b915061142d565b6001600160a01b0385166000908152600a602052604090205460ff161561141157600d546113d29062010000900461ffff1683611682565b600d5461142a90640100000000900461ffff1683611682565b91505b811561144d576127106114408386611758565b61144a919061176f565b90505b95945050505050565b60005b83811015611471578181015183820152602001611459565b50506000910152565b6020815260008251806020840152611499816040850160208701611456565b601f01601f19169190910160400192915050565b6001600160a01b03811681146107e057600080fd5b600080604083850312156114d557600080fd5b82356114e0816114ad565b946020939093013593505050565b60008060006060848603121561150357600080fd5b833561150e816114ad565b9250602084013561151e816114ad565b929592945050506040919091013590565b803561ffff8116811461154157600080fd5b919050565b60008060006060848603121561155b57600080fd5b6115648461152f565b92506115726020850161152f565b91506115806040850161152f565b90509250925092565b60006020828403121561159b57600080fd5b5035919050565b6000602082840312156115b457600080fd5b81356115bf816114ad565b9392505050565b600080604083850312156115d957600080fd5b82356115e4816114ad565b915060208301356115f4816114ad565b809150509250929050565b6000806040838503121561161257600080fd5b823561161d816114ad565b9150602083013580151581146115f457600080fd5b600181811c9082168061164657607f821691505b60208210810361166657634e487b7160e01b600052602260045260246000fd5b50919050565b634e487b7160e01b600052601160045260246000fd5b808201808211156106e6576106e661166c565b600082516116a7818460208701611456565b9190910192915050565b6000602082840312156116c357600080fd5b81516115bf816114ad565b634e487b7160e01b600052603260045260246000fd5b600060a08201878352602060ff88168185015260a0604085015281875180845260c086019150828901935060005b818110156117375784516001600160a01b031683529383019391830191600101611712565b50506001600160a01b03969096166060850152505050608001529392505050565b80820281158282048414176106e6576106e661166c565b60008261178c57634e487b7160e01b600052601260045260246000fd5b50049056fe737761704578616374546f6b656e73466f72455448537570706f7274696e674665654f6e5472616e73666572546f6b656e732875696e743235362c75696e743235362c616464726573735b5d2c616464726573732c75696e7432353629a264697066735822122093358dfef48c92c489bc7de9034a68928e34f233c8e73c7315a04f8ad56fca6d64736f6c63430008130033",
    "sourcePath": "/Users/kasiopea/dev/telegramtokencreator/contracts/Token.sol",
    "compiler": {
        "name": "solc",
        "version": "0.8.19+commit.7dd6d404"
    },
    "functionHashes": {
        "TAX_DIVISOR()": "a335d4ff",
        "WETH()": "ad5c4648",
        "_feesRates()": "1c06a7e1",
        "_isExcludedFromFee(address)": "768dc710",
        "allowance(address,address)": "dd62ed3e",
        "approve(address,uint256)": "095ea7b3",
        "automatedMarketMakerPairs(address)": "b62496f5",
        "balanceOf(address)": "70a08231",
        "burn(uint256)": "42966c68",
        "burnFrom(address,uint256)": "79cc6790",
        "decimals()": "313ce567",
        "decreaseAllowance(address,uint256)": "a457c2d7",
        "excludeFromFee(address,bool)": "df8408fe",
        "inSwap()": "d8306786",
        "increaseAllowance(address,uint256)": "39509351",
        "isExcludedFromFee(address)": "5342acb4",
        "lpPair()": "452ed4f1",
        "name()": "06fdde03",
        "owner()": "8da5cb5b",
        "renounceOwnership()": "715018a6",
        "router()": "f887ea40",
        "setSwapThreshold(uint256)": "9d0014b1",
        "setTaxes(uint16,uint16,uint16)": "32cde664",
        "setTreasuryAddress(address)": "6605bfda",
        "swapThreshold()": "0445b667",
        "symbol()": "95d89b41",
        "totalSupply()": "18160ddd",
        "transfer(address,uint256)": "a9059cbb",
        "transferFrom(address,address,uint256)": "23b872dd",
        "transferOwnership(address)": "f2fde38b",
        "treasuryAddress()": "c5f956af"
    },
    "gasEstimates": {
        "creation": {
            "codeDepositCost": "1236000",
            "executionCost": "infinite",
            "totalCost": "infinite"
        },
        "external": {
            "TAX_DIVISOR()": "251",
            "WETH()": "infinite",
            "_feesRates()": "2484",
            "_isExcludedFromFee(address)": "2571",
            "allowance(address,address)": "infinite",
            "approve(address,uint256)": "24690",
            "automatedMarketMakerPairs(address)": "2592",
            "balanceOf(address)": "2612",
            "burn(uint256)": "50838",
            "burnFrom(address,uint256)": "77520",
            "decimals()": "289",
            "decreaseAllowance(address,uint256)": "27033",
            "excludeFromFee(address,bool)": "26918",
            "inSwap()": "2421",
            "increaseAllowance(address,uint256)": "infinite",
            "isExcludedFromFee(address)": "2588",
            "lpPair()": "2449",
            "name()": "infinite",
            "owner()": "2421",
            "renounceOwnership()": "infinite",
            "router()": "2447",
            "setSwapThreshold(uint256)": "24533",
            "setTaxes(uint16,uint16,uint16)": "infinite",
            "setTreasuryAddress(address)": "26796",
            "swapThreshold()": "2331",
            "symbol()": "infinite",
            "totalSupply()": "2327",
            "transfer(address,uint256)": "infinite",
            "transferFrom(address,address,uint256)": "infinite",
            "transferOwnership(address)": "infinite",
            "treasuryAddress()": "2426"
        },
        "internal": {
            "_finalizeTransfer(address,address,uint256)": "infinite",
            "_transfer(address,address,uint256)": "infinite",
            "calcBuySellTransferFee(address,address,uint256)": "infinite",
            "contractMustSwap(address,address)": "17370",
            "doSwap()": "infinite",
            "swapTokensForNative(uint256,address)": "infinite"
        }
    }
}